{
  "contractName": "Choice",
  "abi": [
    {
      "constant": false,
      "inputs": [
        {
          "name": "_off",
          "type": "uint256"
        }
      ],
      "name": "vote",
      "outputs": [],
      "payable": false,
      "type": "function"
    },
    {
      "constant": true,
      "inputs": [
        {
          "name": "",
          "type": "uint256"
        }
      ],
      "name": "offers",
      "outputs": [
        {
          "name": "id",
          "type": "uint256"
        },
        {
          "name": "name",
          "type": "string"
        },
        {
          "name": "voteCount",
          "type": "uint256"
        }
      ],
      "payable": false,
      "type": "function"
    },
    {
      "constant": true,
      "inputs": [
        {
          "name": "",
          "type": "address"
        }
      ],
      "name": "voters",
      "outputs": [
        {
          "name": "",
          "type": "bool"
        }
      ],
      "payable": false,
      "type": "function"
    },
    {
      "constant": true,
      "inputs": [],
      "name": "offersCount",
      "outputs": [
        {
          "name": "",
          "type": "uint256"
        }
      ],
      "payable": false,
      "type": "function"
    },
    {
      "inputs": [],
      "payable": false,
      "type": "constructor"
    },
    {
      "anonymous": false,
      "inputs": [
        {
          "indexed": true,
          "name": "_offerId",
          "type": "uint256"
        }
      ],
      "name": "votedEvent",
      "type": "event"
    }
  ],
  "bytecode": "0x6060604052341561000c57fe5b5b61005f604060405190810160405280600781526020017f4f666665722031000000000000000000000000000000000000000000000000008152506101096401000000000261032d176401000000009004565b6100b1604060405190810160405280600781526020017f4f666665722032000000000000000000000000000000000000000000000000008152506101096401000000000261032d176401000000009004565b610103604060405190810160405280600781526020017f4f666665722033000000000000000000000000000000000000000000000000008152506101096401000000000261032d176401000000009004565b5b61022c565b60026000815480929190600101919050555060606040519081016040528060025481526020018281526020016000815250600160006002548152602001908152602001600020600082015181600001556020820151816001019080519060200190610175929190610187565b50604082015181600201559050505b50565b828054600181600116156101000203166002900490600052602060002090601f016020900481019282601f106101c857805160ff19168380011785556101f6565b828001600101855582156101f6579182015b828111156101f55782518255916020019190600101906101da565b5b5090506102039190610207565b5090565b61022991905b8082111561022557600081600090555060010161020d565b5090565b90565b61047c8061023b6000396000f30060606040526000357c0100000000000000000000000000000000000000000000000000000000900463ffffffff1680630121b93f1461005c5780638a72ea6a1461007c578063a3ec138d14610140578063bec02acc1461018e575bfe5b341561006457fe5b61007a60048080359060200190919050506101b4565b005b341561008457fe5b61009a60048080359060200190919050506102de565b604051808481526020018060200183815260200182810382528481815460018160011615610100020316600290048152602001915080546001816001161561010002031660029004801561012f5780601f106101045761010080835404028352916020019161012f565b820191906000526020600020905b81548152906001019060200180831161011257829003601f168201915b505094505050505060405180910390f35b341561014857fe5b610174600480803573ffffffffffffffffffffffffffffffffffffffff16906020019091905050610307565b604051808215151515815260200191505060405180910390f35b341561019657fe5b61019e610327565b6040518082815260200191505060405180910390f35b600060003373ffffffffffffffffffffffffffffffffffffffff1673ffffffffffffffffffffffffffffffffffffffff16815260200190815260200160002060009054906101000a900460ff1615151561020e5760006000fd5b60008111801561022057506002548111155b151561022c5760006000fd5b6001600060003373ffffffffffffffffffffffffffffffffffffffff1673ffffffffffffffffffffffffffffffffffffffff16815260200190815260200160002060006101000a81548160ff0219169083151502179055506001600082815260200190815260200160002060020160008154809291906001019190505550807ffff3c900d938d21d0990d786e819f29b8d05c1ef587b462b939609625b684b1660405180905060405180910390a25b50565b600160205280600052604060002060009150905080600001549080600101908060020154905083565b60006020528060005260406000206000915054906101000a900460ff1681565b60025481565b600260008154809291906001019190505550606060405190810160405280600254815260200182815260200160008152506001600060025481526020019081526020016000206000820151816000015560208201518160010190805190602001906103999291906103ab565b50604082015181600201559050505b50565b828054600181600116156101000203166002900490600052602060002090601f016020900481019282601f106103ec57805160ff191683800117855561041a565b8280016001018555821561041a579182015b828111156104195782518255916020019190600101906103fe565b5b509050610427919061042b565b5090565b61044d91905b80821115610449576000816000905550600101610431565b5090565b905600a165627a7a72305820f13d763e5769679049d0cadf13c6ebaff3f5fa4b96c14bb00d4513df2dbe64a10029",
  "source": "pragma solidity ^0.4.11;\r\n\r\ncontract Choice {\r\n\r\n    struct Offer{\r\n        uint id;\r\n        string name;\r\n        uint voteCount;\r\n    }\r\n\r\n    mapping(address => bool) public voters;\r\n    // Read/write offer\r\n    mapping(uint => Offer) public offers;\r\n\r\n    //\r\n    uint public offersCount;\r\n\r\n    event votedEvent (\r\n        uint indexed _offerId\r\n    );\r\n\r\n    // Constructor\r\n    function Choice () public {\r\n        addOffer(\"Offer 1\");\r\n        addOffer(\"Offer 2\");\r\n        addOffer(\"Offer 3\");\r\n    }\r\n\r\n    function addOffer(string _name) private{\r\n        offersCount ++;\r\n        offers[offersCount] = Offer(offersCount, _name, 0);\r\n    }\r\n\r\n    function vote(uint _off) public{\r\n        require(!voters[msg.sender]);\r\n        require(_off > 0 && _off <= offersCount);\r\n\r\n        voters[msg.sender] = true;\r\n        \r\n        offers[_off].voteCount ++;\r\n\r\n        votedEvent(_off);\r\n    }\r\n}",
  "sourcePath": "C:\\Users\\79915\\dChoice\\contracts\\Choice.sol",
  "compiler": {
    "name": "solc",
    "version": "0.4.11+commit.68ef5810.Emscripten.clang"
  },
  "schemaVersion": "3.4.16",
  "updatedAt": "2023-12-26T20:49:16.705Z",
  "devdoc": {
    "methods": {}
  },
  "userdoc": {
    "methods": {}
  }
}